:1000000071C000008EC000008CC000008AC00000DB
:1000100088C0000086C0000084C0000082C00000CC
:1000200080C0000005C200007CC000007AC0000053
:1000300078C0000076C0000074C0000072C00000EC
:1000400070C000006EC000006CC000006AC00000FC
:1000500068C0000066C0000064C00000A9C00000C5
:1000600060C000005EC000005CC000005AC000001C
:1000700058C0000056C0000054C0000052C000002C
:1000800050C000004EC000004CC000004AC000003C
:1000900048C0000046C0000044C0000042C000004C
:1000A00040C000003EC000003CC000003AC000005C
:1000B00038C0000036C0000034C0000032C000006C
:1000C00030C000002EC000002CC000002AC000007C
:1000D00028C0000026C0000024C0000022C000008C
:1000E00020C0000011241FBECFEFD1E2DEBFCDBF84
:1000F00000E00CBF12E0A0E0B2E0ECE3F5E000E0CD
:100100000BBF02C007900D92A232B107D9F722E0CF
:10011000A2E2B2E001C01D92A632B207E1F799D186
:100120000BC26ECF87B1876C87B980E888B92FEF93
:1001300087EA91E6215080409040E1F700C000003E
:1001400080EC88B988B1887F88B92FEF81EE94E080
:10015000215080409040E1F700C000008FEF81B94E
:1001600088E382B9429A42988FE39FE10197F1F7C1
:1001700000C000008CE082B9429A42988FE39FE170
:100180000197F1F700C0000081E082B9429A4298DD
:100190008FE39FE10197F1F700C0000085B585600E
:1001A00085BD16BCEEE6F0E0808181608083089515
:1001B0001F921FB61F9211242F932BB72F938F934B
:1001C0009F93EF93FF93909123029031F1F4409825
:1001D0008091200282B9109223028091200220E4B3
:1001E0008227809320028091220289278093220215
:1001F000429A4298FF91EF919F918F912F912BBF3F
:100200002F911F901FBE1F901895409A8091220237
:10021000E091230290E080509E4FE80FF92FF11DEE
:10022000808182B9449A809123028F5F8093230258
:10023000DFCFE9EBF0E080818160808386EC809302
:10024000B800ECEB808184608083089584EA809319
:10025000BC008091BC0087FFFCCF08958093BB0059
:1002600084E88093BC008091BC0087FFFCCF089598
:1002700084E98093BC00089584EC8093BC00809155
:10028000BC0087FFFCCF8091BB00089584E8809379
:10029000BC008091BC0087FFFCCF8091BB0008951B
:1002A000A2E0B0E0E5E5F1E020C189836A83CEDF1A
:1002B0008EEAD4DF8981D2DF8A81D0DFD9DF22962E
:1002C000E2E02FC1A1E0B0E0E7E6F1E00EC18983F2
:1002D000BDDF8EEAC3DF8981C1DFB8DF8FEABEDF11
:1002E000D5DF8983C5DF89812196E2E01AC160E408
:1002F00089E0D6DF89E0E6DF86FDFCCF60E588E0B7
:10030000CFDF67E28AE0CCDF64E28CE0C9DF60E443
:1003100082E0C6DF62E089E0C3DF80E0D3CF0895EA
:10032000CF92DF92EF92FF921F93CF93DF9300D093
:1003300000D000D00F920F92CDB7DEB780E0C2DFC1
:1003400086FF33C083DF8EEA89DF87E087DF7EDFC9
:100350008FEA84DF91DF8B878FDFC82E97DF182F1E
:1003600087DFDC2C8B85E82EC12E83E0E822F12C80
:1003700010E0B601C7012AE030E040E050E083D051
:10038000FE013196E10FF11D1F5F605D6083C601C4
:10039000D70169017A010A97A105B10550F711113A
:1003A00012C08DE026D08AE024D02B960FB6F894A8
:1003B000DEBF0FBECDBFDF91CF911F91FF90EF90B9
:1003C000DF90CF9008951150FE013196E10FF11D9D
:1003D00080810FD0E4CF1092C50087E68093C400DF
:1003E000E1ECF0E080818861808386E08093C20048
:1003F00008959091C00095FFFCCF8093C6000895AA
:10040000E8E6F0E0808181608083EBE680818160B6
:100410008083109225020895FC01809125028115A8
:1004200031F08091240280831092250281E00895AA
:100430008F938FB78F93189B08C0809109018F709D
:100440008093240281E0809325028F918FBF8F914A
:10045000189568DEEEDEBFDFD3DF78942FEF83EDF3
:1004600090E3215080409040E1F700C000003FDF62
:100470002FEF83ED90E3215080409040E1F700C0E2
:1004800000004EDFFECFA1E21A2EAA1BBB1BFD010E
:100490000DC0AA1FBB1FEE1FFF1FA217B307E40763
:1004A000F50720F0A21BB30BE40BF50B661F771FBB
:1004B000881F991F1A9469F760957095809590959B
:1004C0009B01AC01BD01CF0108952F923F924F9245
:1004D0005F926F927F928F929F92AF92BF92CF92D4
:1004E000DF92EF92FF920F931F93CF93DF93CDB7DD
:1004F000DEB7CA1BDB0B0FB6F894DEBF0FBECDBF55
:1005000019942A88398848885F846E847D848C8415
:100510009B84AA84B984C884DF80EE80FD800C812E
:100520001B81AA81B981CE0FD11D0FB6F894DEBF11
:0C0530000FBECDBFED010895F894FFCF81
:10053C004D415833303130322020202020202020D3
:10054C00202020202020202020202020202020209F
:02055C00C000DD
:00000001FF
